{
  "method": "multiSend",
  "parameters": [
    {
      "name": "transactions",
      "type": "bytes",
      "value": "0x00111111125434b319222cdbf8c261674adb56f3ae000000000000000000000000000000000000000000000ed2b525841adfc000000000000000000000000000000000000000000000000000000000000000000b8490411a32000000000000000000000000d47140f6ab73f6d6b6675fb1610bb5e9b5d96fe5000000000000000000000000000000000000000000000000000000000000006000000000000000000000000000000000000000000000000000000000000001c0000000000000000000000000eeeeeeeeeeeeeeeeeeeeeeeeeeeeeeeeeeeeeeee000000000000000000000000c02aaa39b223fe8d0a0e5c4f27ead9083c756cc2000000000000000000000000d47140f6ab73f6d6b6675fb1610bb5e9b5d96fe5000000000000000000000000bc79855178842fdba0c353494895deef509e26bb000000000000000000000000000000000000000000000ed2b525841adfc00000000000000000000000000000000000000000000000000ecee9b38efb1a680000000000000000000000000000000000000000000000000ed2b525841adfc000000000000000000000000000000000000000000000000000000000000000000001000000000000000000000000000000000000000000000000000000000000000000000000000000000000000000000000000000000000000000000000000001400000000000000000000000000000000000000000000000000000000000000000000000000000000000000000000000000000000000000000000000000000000300000000000000000000000000000000000000000000000000000000000000600000000000000000000000000000000000000000000000000000000000000440000000000000000000000000000000000000000000000000000000000000076000000000000000000000000000000000000000000000000000000000000000000000000000000000000000000000000000000000000000000000000000000000000000000000000000000000000000000000000000000000000000000000000000000000000000000000000000000000000000000000000000000000000000800000000000000000000000000000000000000000000000000000000000000324b3af37c000000000000000000000000000000000000000000000000000000000000000808000000000000000000000000000000000000000000000000000000000000024000000000000000000000000eeeeeeeeeeeeeeeeeeeeeeeeeeeeeeeeeeeeeeee0000000000000000000000000000001400000000000000000000000000000014000000000000000000000000000000000000000000000000000000000000000000000000000000000000000000000000000000000000000000000000000000000000000000000000000000000000000000000000000000000000000000000000000000000000000000000000000000000000000000000000000000000000008000000000000000000000000000000000000000000000000000000000000001e45636885000000000000000000000000000000000000000000000000000000000000000e00000000000000000000000000000000000000000000000000000000000000001000000000000000000000000eeeeeeeeeeeeeeeeeeeeeeeeeeeeeeeeeeeeeeee000000000000000000000000c02aaa39b223fe8d0a0e5c4f27ead9083c756cc2000000000000000000000000bc79855178842fdba0c353494895deef509e26bb000000000000000000000000d47140f6ab73f6d6b6675fb1610bb5e9b5d96fe5000000000000000000000000000000000000000000000ecee9b38efb1a68000000000000000000000000000000000000000000000000000000000000000000010000000000000000000000000000000000000000000000000000000000000020000000000000000000000000c02aaa39b223fe8d0a0e5c4f27ead9083c756cc20000000000000000000000000000000000000000000000000000000000000000000000000000000000000000000000000000000000000ed2b525841adfc0000000000000000000000000000000000000000000000000000000000000000000800000000000000000000000000000000000000000000000000000000000000004d0e30db0000000000000000000000000000000000000000000000000000000000000000000000000000000000000000000000000000000000000000000000000000000000000000000000000000000000000000000000000000000000000000000000000000000000000000000000000000000000000000000000000000000000000000000000000000000000000000000000000000000000000000000000000000000000000000000000000000000000000000000000000000000000000000000000000000000000000000000000000000000000000008000000000000000000000000000000000000000000000000000000000000002647f8fe7a000000000000000000000000000000000000000000000000000000000000000808000000000000000000000000000000000000000000000000000000000000044000000000000000000000000d47140f6ab73f6d6b6675fb1610bb5e9b5d96fe500000000000000000000000000000000000000000000000000000000000001e0000000000000000000000000000000000000000000000000000000000000000000000000000000000000000000000000000000000000000000000000000000000000000000000000000000000000000000000000000000000000000000000000000000000000000000000000000000000000000000000000000000000000008000000000000000000000000000000000000000000000000000000000000000a405971224000000000000000000000000c02aaa39b223fe8d0a0e5c4f27ead9083c756cc2000000000000000000000000000000000000000000000000000000000000000000000000000000000000000000000000000000000000000000000000000000010000000000000000000000000000000100000000000000000000000000000001000000000000000000000000000000000000000000000000002f9ae7c8305c3600000000000000000000000000000000000000000000000000000000000000000000000000000000000000000000000000000000000000000000004470bdb947000000000000000000000000c02aaa39b223fe8d0a0e5c4f27ead9083c756cc2000000000000000000000000000000000000000000000ed2b525841adfc00000000000000000000000000000000000000000000000000000000000000000000000000000000000000000000000000000000000000000000000000000000000000000000000000000000000000000000000000000000000000000000000000000000000000000000000000000000000000000000000000000000000000000000000000000000000000000000000000000000000000000000000000000000000000000000000000000000000000000000000000000000000800000000000000000000000000000000000000000000000000000000000000184b3af37c000000000000000000000000000000000000000000000000000000000000000808000000000000000000000000000000000000000000000000000000000000024000000000000000000000000c02aaa39b223fe8d0a0e5c4f27ead9083c756cc20000000000000000000000000000000100000000000000000000000000000001000000000000000000000000c02aaa39b223fe8d0a0e5c4f27ead9083c756cc20000000000000000000000000000000000000000000000000000000000000000000000000000000000000000000000000000000000000000000000000000000000000000000000000000000000000000000000000000000000000000000000800000000000000000000000000000000000000000000000000000000000000044a9059cbb000000000000000000000000bc79855178842fdba0c353494895deef509e26bb00000000000000000000000000000000000000000000000000000000000000010000000000000000000000000000000000000000000000000000000000000000000000000000000000000000000000000000000000000000",
      "valueDecoded": [
        {
          "operation": 0,
          "to": "0x111111125434b319222CdBf8C261674aDB56F3ae",
          "value": "22",
          "data": "0x90411a32000000000000000000000000d47140f6ab73f6d6b6675fb1610bb5e9b5d96fe5000000000000000000000000000000000000000000000000000000000000006000000000000000000000000000000000000000000000000000000000000001c0000000000000000000000000eeeeeeeeeeeeeeeeeeeeeeeeeeeeeeeeeeeeeeee000000000000000000000000c02aaa39b223fe8d0a0e5c4f27ead9083c756cc2000000000000000000000000d47140f6ab73f6d6b6675fb1610bb5e9b5d96fe5000000000000000000000000bc79855178842fdba0c353494895deef509e26bb000000000000000000000000000000000000000000000ed2b525841adfc00000000000000000000000000000000000000000000000000ecee9b38efb1a680000000000000000000000000000000000000000000000000ed2b525841adfc000000000000000000000000000000000000000000000000000000000000000000001000000000000000000000000000000000000000000000000000000000000000000000000000000000000000000000000000000000000000000000000000001400000000000000000000000000000000000000000000000000000000000000000000000000000000000000000000000000000000000000000000000000000000300000000000000000000000000000000000000000000000000000000000000600000000000000000000000000000000000000000000000000000000000000440000000000000000000000000000000000000000000000000000000000000076000000000000000000000000000000000000000000000000000000000000000000000000000000000000000000000000000000000000000000000000000000000000000000000000000000000000000000000000000000000000000000000000000000000000000000000000000000000000000000000000000000000000000800000000000000000000000000000000000000000000000000000000000000324b3af37c000000000000000000000000000000000000000000000000000000000000000808000000000000000000000000000000000000000000000000000000000000024000000000000000000000000eeeeeeeeeeeeeeeeeeeeeeeeeeeeeeeeeeeeeeee0000000000000000000000000000001400000000000000000000000000000014000000000000000000000000000000000000000000000000000000000000000000000000000000000000000000000000000000000000000000000000000000000000000000000000000000000000000000000000000000000000000000000000000000000000000000000000000000000000000000000000000000000000008000000000000000000000000000000000000000000000000000000000000001e45636885000000000000000000000000000000000000000000000000000000000000000e00000000000000000000000000000000000000000000000000000000000000001000000000000000000000000eeeeeeeeeeeeeeeeeeeeeeeeeeeeeeeeeeeeeeee000000000000000000000000c02aaa39b223fe8d0a0e5c4f27ead9083c756cc2000000000000000000000000bc79855178842fdba0c353494895deef509e26bb000000000000000000000000d47140f6ab73f6d6b6675fb1610bb5e9b5d96fe5000000000000000000000000000000000000000000000ecee9b38efb1a68000000000000000000000000000000000000000000000000000000000000000000010000000000000000000000000000000000000000000000000000000000000020000000000000000000000000c02aaa39b223fe8d0a0e5c4f27ead9083c756cc20000000000000000000000000000000000000000000000000000000000000000000000000000000000000000000000000000000000000ed2b525841adfc0000000000000000000000000000000000000000000000000000000000000000000800000000000000000000000000000000000000000000000000000000000000004d0e30db0000000000000000000000000000000000000000000000000000000000000000000000000000000000000000000000000000000000000000000000000000000000000000000000000000000000000000000000000000000000000000000000000000000000000000000000000000000000000000000000000000000000000000000000000000000000000000000000000000000000000000000000000000000000000000000000000000000000000000000000000000000000000000000000000000000000000000000000000000000000000008000000000000000000000000000000000000000000000000000000000000002647f8fe7a000000000000000000000000000000000000000000000000000000000000000808000000000000000000000000000000000000000000000000000000000000044000000000000000000000000d47140f6ab73f6d6b6675fb1610bb5e9b5d96fe500000000000000000000000000000000000000000000000000000000000001e0000000000000000000000000000000000000000000000000000000000000000000000000000000000000000000000000000000000000000000000000000000000000000000000000000000000000000000000000000000000000000000000000000000000000000000000000000000000000000000000000000000000000008000000000000000000000000000000000000000000000000000000000000000a405971224000000000000000000000000c02aaa39b223fe8d0a0e5c4f27ead9083c756cc2000000000000000000000000000000000000000000000000000000000000000000000000000000000000000000000000000000000000000000000000000000010000000000000000000000000000000100000000000000000000000000000001000000000000000000000000000000000000000000000000002f9ae7c8305c3600000000000000000000000000000000000000000000000000000000000000000000000000000000000000000000000000000000000000000000004470bdb947000000000000000000000000c02aaa39b223fe8d0a0e5c4f27ead9083c756cc2000000000000000000000000000000000000000000000ed2b525841adfc00000000000000000000000000000000000000000000000000000000000000000000000000000000000000000000000000000000000000000000000000000000000000000000000000000000000000000000000000000000000000000000000000000000000000000000000000000000000000000000000000000000000000000000000000000000000000000000000000000000000000000000000000000000000000000000000000000000000000000000000000000000000800000000000000000000000000000000000000000000000000000000000000184b3af37c000000000000000000000000000000000000000000000000000000000000000808000000000000000000000000000000000000000000000000000000000000024000000000000000000000000c02aaa39b223fe8d0a0e5c4f27ead9083c756cc20000000000000000000000000000000100000000000000000000000000000001000000000000000000000000c02aaa39b223fe8d0a0e5c4f27ead9083c756cc20000000000000000000000000000000000000000000000000000000000000000000000000000000000000000000000000000000000000000000000000000000000000000000000000000000000000000000000000000000000000000000000800000000000000000000000000000000000000000000000000000000000000044a9059cbb000000000000000000000000bc79855178842fdba0c353494895deef509e26bb00000000000000000000000000000000000000000000000000000000000000010000000000000000000000000000000000000000000000000000000000000000000000000000000000000000000000000000000000000000",
          "dataDecoded": {
            "method": "swap",
            "parameters": [
              {
                "name": "caller",
                "type": "address",
                "value": "0xd47140F6Ab73f6d6B6675Fb1610Bb5E9B5d96FE5"
              },
              {
                "name": "desc",
                "type": "(address,address,address,address,uint256,uint256,uint256,uint256,address,bytes)",
                "value": [
                  "0xEeeeeEeeeEeEeeEeEeEeeEEEeeeeEeeeeeeeEEeE",
                  "0xC02aaA39b223FE8D0A0e5C4F27eAD9083C756Cc2",
                  "0xd47140F6Ab73f6d6B6675Fb1610Bb5E9B5d96FE5",
                  "0xBc79855178842FDBA0c353494895DEEf509E26bB",
                  "70000000000000000000000",
                  "69930000000000000000000",
                  "70000000000000000000000",
                  "1",
                  "0x0000000000000000000000000000000000000000",
                  "0x"
                ]
              },
              {
                "name": "calls",
                "type": "(uint256,uint256,uint256,bytes)[]",
                "value": [
                  [
                    "0",
                    "0",
                    "0",
                    "0xb3af37c000000000000000000000000000000000000000000000000000000000000000808000000000000000000000000000000000000000000000000000000000000024000000000000000000000000eeeeeeeeeeeeeeeeeeeeeeeeeeeeeeeeeeeeeeee0000000000000000000000000000001400000000000000000000000000000014000000000000000000000000000000000000000000000000000000000000000000000000000000000000000000000000000000000000000000000000000000000000000000000000000000000000000000000000000000000000000000000000000000000000000000000000000000000000000000000000000000000000008000000000000000000000000000000000000000000000000000000000000001e45636885000000000000000000000000000000000000000000000000000000000000000e00000000000000000000000000000000000000000000000000000000000000001000000000000000000000000eeeeeeeeeeeeeeeeeeeeeeeeeeeeeeeeeeeeeeee000000000000000000000000c02aaa39b223fe8d0a0e5c4f27ead9083c756cc2000000000000000000000000bc79855178842fdba0c353494895deef509e26bb000000000000000000000000d47140f6ab73f6d6b6675fb1610bb5e9b5d96fe5000000000000000000000000000000000000000000000ecee9b38efb1a68000000000000000000000000000000000000000000000000000000000000000000010000000000000000000000000000000000000000000000000000000000000020000000000000000000000000c02aaa39b223fe8d0a0e5c4f27ead9083c756cc20000000000000000000000000000000000000000000000000000000000000000000000000000000000000000000000000000000000000ed2b525841adfc0000000000000000000000000000000000000000000000000000000000000000000800000000000000000000000000000000000000000000000000000000000000004d0e30db00000000000000000000000000000000000000000000000000000000000000000000000000000000000000000000000000000000000000000"
                  ],
                  [
                    "0",
                    "0",
                    "0",
                    "0x7f8fe7a000000000000000000000000000000000000000000000000000000000000000808000000000000000000000000000000000000000000000000000000000000044000000000000000000000000d47140f6ab73f6d6b6675fb1610bb5e9b5d96fe500000000000000000000000000000000000000000000000000000000000001e0000000000000000000000000000000000000000000000000000000000000000000000000000000000000000000000000000000000000000000000000000000000000000000000000000000000000000000000000000000000000000000000000000000000000000000000000000000000000000000000000000000000000008000000000000000000000000000000000000000000000000000000000000000a405971224000000000000000000000000c02aaa39b223fe8d0a0e5c4f27ead9083c756cc2000000000000000000000000000000000000000000000000000000000000000000000000000000000000000000000000000000000000000000000000000000010000000000000000000000000000000100000000000000000000000000000001000000000000000000000000000000000000000000000000002f9ae7c8305c3600000000000000000000000000000000000000000000000000000000000000000000000000000000000000000000000000000000000000000000004470bdb947000000000000000000000000c02aaa39b223fe8d0a0e5c4f27ead9083c756cc2000000000000000000000000000000000000000000000ed2b525841adfc0000000000000000000000000000000000000000000000000000000000000"
                  ],
                  [
                    "0",
                    "0",
                    "0",
                    "0xb3af37c000000000000000000000000000000000000000000000000000000000000000808000000000000000000000000000000000000000000000000000000000000024000000000000000000000000c02aaa39b223fe8d0a0e5c4f27ead9083c756cc20000000000000000000000000000000100000000000000000000000000000001000000000000000000000000c02aaa39b223fe8d0a0e5c4f27ead9083c756cc20000000000000000000000000000000000000000000000000000000000000000000000000000000000000000000000000000000000000000000000000000000000000000000000000000000000000000000000000000000000000000000000800000000000000000000000000000000000000000000000000000000000000044a9059cbb000000000000000000000000bc79855178842fdba0c353494895deef509e26bb000000000000000000000000000000000000000000000000000000000000000100000000000000000000000000000000000000000000000000000000"
                  ]
                ]
              }
            ]
          }
        }
      ]
    }
  ]
}
