{
  "method": "multiSend",
  "parameters": [
    {
      "name": "transactions",
      "type": "bytes",
      "value": "0x00d9ba894e0097f8cc2bbc9d24d308b98e36dc6d0200000000000000000000000000000000000000000000000000000000000000000000000000000000000000000000000000000000000000000000000000000044a9059cbb000000000000000000000000938bae50a210b80ea233112800cd5bc2e764430000000000000000000000000000000000000000000000000000038d7ea4c6800000d9ba894e0097f8cc2bbc9d24d308b98e36dc6d0200000000000000000000000000000000000000000000000000000000000000000000000000000000000000000000000000000000000000000000000000000044a9059cbb000000000000000000000000938bae50a210b80ea233112800cd5bc2e764430000000000000000000000000000000000000000000000000000038d7ea4c6800000d9ba894e0097f8cc2bbc9d24d308b98e36dc6d0200000000000000000000000000000000000000000000000000000000000000000000000000000000000000000000000000000000000000000000000000000044a9059cbb000000000000000000000000938bae50a210b80ea233112800cd5bc2e764430000000000000000000000000000000000000000000000000000038d7ea4c68000",
      "valueDecoded": [
        {
          "operation": 0,
          "to": "0xD9BA894E0097f8cC2BBc9D24D308b98e36dc6D02",
          "value": "0",
          "data": "0xa9059cbb000000000000000000000000938bae50a210b80ea233112800cd5bc2e764430000000000000000000000000000000000000000000000000000038d7ea4c68000",
          "dataDecoded": {
            "method": "transfer",
            "parameters": [
              {
                "name": "to",
                "type": "address",
                "value": "0x938bae50a210b80EA233112800Cd5Bc2e7644300"
              },
              {
                "name": "value",
                "type": "uint256",
                "value": "1000000000000000"
              }
            ]
          }
        },
        {
          "operation": 1,
          "to": "0xD9BA894E0097f8cC2BBc9D24D308b98e36dc6D02",
          "value": "0",
          "data": "0xa9059cbb000000000000000000000000938bae50a210b80ea233112800cd5bc2e764430000000000000000000000000000000000000000000000000000038d7ea4c68000",
          "dataDecoded": {
            "method": "transfer",
            "parameters": [
              {
                "name": "to",
                "type": "address",
                "value": "0x938bae50a210b80EA233112800Cd5Bc2e7644300"
              },
              {
                "name": "value",
                "type": "uint256",
                "value": "1000000000000000"
              }
            ]
          }
        },
        {
          "operation": 0,
          "to": "0xD9BA894E0097f8cC2BBc9D24D308b98e36dc6D02",
          "value": "0",
          "data": "0xa9059cbb000000000000000000000000938bae50a210b80ea233112800cd5bc2e764430000000000000000000000000000000000000000000000000000038d7ea4c68000",
          "dataDecoded": {
            "method": "transfer",
            "parameters": [
              {
                "name": "to",
                "type": "address",
                "value": "0x938bae50a210b80EA233112800Cd5Bc2e7644300"
              },
              {
                "name": "value",
                "type": "uint256",
                "value": "1000000000000000"
              }
            ]
          }
        }
      ]
    }
  ]
}