{
  "txId": "multisig_0xBc79855178842FDBA0c353494895DEEf509E26bB_0x728e6dec56dc61523b56dc440e34c1c4c39c66895df8e5d3499ed1f7d4fcfe80",
  "executedAt": 1607346715000,
  "txStatus": "SUCCESS",
  "txInfo": {
    "type": "Custom",
    "to": {
      "value": "0x8D29bE29923b68abfDD21e541b9374737B49cdAD"
    },
    "dataSize": "3108",
    "value": "0",
    "methodName": "multiSend",
    "actionCount": 1,
    "isCancellation": false
  },
  "txData": {
    "hexData": "0x8d80ff0a00000000000000000000000000000000000000000000000000000000000000200000000000000000000000000000000000000000000000000000000000000bd900111111125434b319222cdbf8c261674adb56f3ae000000000000000000000000000000000000000000000ed2b525841adfc000000000000000000000000000000000000000000000000000000000000000000b8490411a32000000000000000000000000d47140f6ab73f6d6b6675fb1610bb5e9b5d96fe5000000000000000000000000000000000000000000000000000000000000006000000000000000000000000000000000000000000000000000000000000001c0000000000000000000000000eeeeeeeeeeeeeeeeeeeeeeeeeeeeeeeeeeeeeeee000000000000000000000000c02aaa39b223fe8d0a0e5c4f27ead9083c756cc2000000000000000000000000d47140f6ab73f6d6b6675fb1610bb5e9b5d96fe5000000000000000000000000bc79855178842fdba0c353494895deef509e26bb000000000000000000000000000000000000000000000ed2b525841adfc00000000000000000000000000000000000000000000000000ecee9b38efb1a680000000000000000000000000000000000000000000000000ed2b525841adfc000000000000000000000000000000000000000000000000000000000000000000001000000000000000000000000000000000000000000000000000000000000000000000000000000000000000000000000000000000000000000000000000001400000000000000000000000000000000000000000000000000000000000000000000000000000000000000000000000000000000000000000000000000000000300000000000000000000000000000000000000000000000000000000000000600000000000000000000000000000000000000000000000000000000000000440000000000000000000000000000000000000000000000000000000000000076000000000000000000000000000000000000000000000000000000000000000000000000000000000000000000000000000000000000000000000000000000000000000000000000000000000000000000000000000000000000000000000000000000000000000000000000000000000000000000000000000000000000000800000000000000000000000000000000000000000000000000000000000000324b3af37c000000000000000000000000000000000000000000000000000000000000000808000000000000000000000000000000000000000000000000000000000000024000000000000000000000000eeeeeeeeeeeeeeeeeeeeeeeeeeeeeeeeeeeeeeee0000000000000000000000000000001400000000000000000000000000000014000000000000000000000000000000000000000000000000000000000000000000000000000000000000000000000000000000000000000000000000000000000000000000000000000000000000000000000000000000000000000000000000000000000000000000000000000000000000000000000000000000000000008000000000000000000000000000000000000000000000000000000000000001e45636885000000000000000000000000000000000000000000000000000000000000000e00000000000000000000000000000000000000000000000000000000000000001000000000000000000000000eeeeeeeeeeeeeeeeeeeeeeeeeeeeeeeeeeeeeeee000000000000000000000000c02aaa39b223fe8d0a0e5c4f27ead9083c756cc2000000000000000000000000bc79855178842fdba0c353494895deef509e26bb000000000000000000000000d47140f6ab73f6d6b6675fb1610bb5e9b5d96fe5000000000000000000000000000000000000000000000ecee9b38efb1a68000000000000000000000000000000000000000000000000000000000000000000010000000000000000000000000000000000000000000000000000000000000020000000000000000000000000c02aaa39b223fe8d0a0e5c4f27ead9083c756cc20000000000000000000000000000000000000000000000000000000000000000000000000000000000000000000000000000000000000ed2b525841adfc0000000000000000000000000000000000000000000000000000000000000000000800000000000000000000000000000000000000000000000000000000000000004d0e30db0000000000000000000000000000000000000000000000000000000000000000000000000000000000000000000000000000000000000000000000000000000000000000000000000000000000000000000000000000000000000000000000000000000000000000000000000000000000000000000000000000000000000000000000000000000000000000000000000000000000000000000000000000000000000000000000000000000000000000000000000000000000000000000000000000000000000000000000000000000000000008000000000000000000000000000000000000000000000000000000000000002647f8fe7a000000000000000000000000000000000000000000000000000000000000000808000000000000000000000000000000000000000000000000000000000000044000000000000000000000000d47140f6ab73f6d6b6675fb1610bb5e9b5d96fe500000000000000000000000000000000000000000000000000000000000001e0000000000000000000000000000000000000000000000000000000000000000000000000000000000000000000000000000000000000000000000000000000000000000000000000000000000000000000000000000000000000000000000000000000000000000000000000000000000000000000000000000000000000008000000000000000000000000000000000000000000000000000000000000000a405971224000000000000000000000000c02aaa39b223fe8d0a0e5c4f27ead9083c756cc2000000000000000000000000000000000000000000000000000000000000000000000000000000000000000000000000000000000000000000000000000000010000000000000000000000000000000100000000000000000000000000000001000000000000000000000000000000000000000000000000002f9ae7c8305c3600000000000000000000000000000000000000000000000000000000000000000000000000000000000000000000000000000000000000000000004470bdb947000000000000000000000000c02aaa39b223fe8d0a0e5c4f27ead9083c756cc2000000000000000000000000000000000000000000000ed2b525841adfc00000000000000000000000000000000000000000000000000000000000000000000000000000000000000000000000000000000000000000000000000000000000000000000000000000000000000000000000000000000000000000000000000000000000000000000000000000000000000000000000000000000000000000000000000000000000000000000000000000000000000000000000000000000000000000000000000000000000000000000000000000000000800000000000000000000000000000000000000000000000000000000000000184b3af37c000000000000000000000000000000000000000000000000000000000000000808000000000000000000000000000000000000000000000000000000000000024000000000000000000000000c02aaa39b223fe8d0a0e5c4f27ead9083c756cc20000000000000000000000000000000100000000000000000000000000000001000000000000000000000000c02aaa39b223fe8d0a0e5c4f27ead9083c756cc20000000000000000000000000000000000000000000000000000000000000000000000000000000000000000000000000000000000000000000000000000000000000000000000000000000000000000000000000000000000000000000000800000000000000000000000000000000000000000000000000000000000000044a9059cbb000000000000000000000000bc79855178842fdba0c353494895deef509e26bb0000000000000000000000000000000000000000000000000000000000000001000000000000000000000000000000000000000000000000000000000000000000000000000000000000000000000000000000000000000000000000000000",
    "dataDecoded": {
      "method": "multiSend",
      "parameters": [
        {
          "name": "transactions",
          "type": "bytes",
          "value": "0x00111111125434b319222cdbf8c261674adb56f3ae000000000000000000000000000000000000000000000ed2b525841adfc000000000000000000000000000000000000000000000000000000000000000000b8490411a32000000000000000000000000d47140f6ab73f6d6b6675fb1610bb5e9b5d96fe5000000000000000000000000000000000000000000000000000000000000006000000000000000000000000000000000000000000000000000000000000001c0000000000000000000000000eeeeeeeeeeeeeeeeeeeeeeeeeeeeeeeeeeeeeeee000000000000000000000000c02aaa39b223fe8d0a0e5c4f27ead9083c756cc2000000000000000000000000d47140f6ab73f6d6b6675fb1610bb5e9b5d96fe5000000000000000000000000bc79855178842fdba0c353494895deef509e26bb000000000000000000000000000000000000000000000ed2b525841adfc00000000000000000000000000000000000000000000000000ecee9b38efb1a680000000000000000000000000000000000000000000000000ed2b525841adfc000000000000000000000000000000000000000000000000000000000000000000001000000000000000000000000000000000000000000000000000000000000000000000000000000000000000000000000000000000000000000000000000001400000000000000000000000000000000000000000000000000000000000000000000000000000000000000000000000000000000000000000000000000000000300000000000000000000000000000000000000000000000000000000000000600000000000000000000000000000000000000000000000000000000000000440000000000000000000000000000000000000000000000000000000000000076000000000000000000000000000000000000000000000000000000000000000000000000000000000000000000000000000000000000000000000000000000000000000000000000000000000000000000000000000000000000000000000000000000000000000000000000000000000000000000000000000000000000000800000000000000000000000000000000000000000000000000000000000000324b3af37c000000000000000000000000000000000000000000000000000000000000000808000000000000000000000000000000000000000000000000000000000000024000000000000000000000000eeeeeeeeeeeeeeeeeeeeeeeeeeeeeeeeeeeeeeee0000000000000000000000000000001400000000000000000000000000000014000000000000000000000000000000000000000000000000000000000000000000000000000000000000000000000000000000000000000000000000000000000000000000000000000000000000000000000000000000000000000000000000000000000000000000000000000000000000000000000000000000000000008000000000000000000000000000000000000000000000000000000000000001e45636885000000000000000000000000000000000000000000000000000000000000000e00000000000000000000000000000000000000000000000000000000000000001000000000000000000000000eeeeeeeeeeeeeeeeeeeeeeeeeeeeeeeeeeeeeeee000000000000000000000000c02aaa39b223fe8d0a0e5c4f27ead9083c756cc2000000000000000000000000bc79855178842fdba0c353494895deef509e26bb000000000000000000000000d47140f6ab73f6d6b6675fb1610bb5e9b5d96fe5000000000000000000000000000000000000000000000ecee9b38efb1a68000000000000000000000000000000000000000000000000000000000000000000010000000000000000000000000000000000000000000000000000000000000020000000000000000000000000c02aaa39b223fe8d0a0e5c4f27ead9083c756cc20000000000000000000000000000000000000000000000000000000000000000000000000000000000000000000000000000000000000ed2b525841adfc0000000000000000000000000000000000000000000000000000000000000000000800000000000000000000000000000000000000000000000000000000000000004d0e30db0000000000000000000000000000000000000000000000000000000000000000000000000000000000000000000000000000000000000000000000000000000000000000000000000000000000000000000000000000000000000000000000000000000000000000000000000000000000000000000000000000000000000000000000000000000000000000000000000000000000000000000000000000000000000000000000000000000000000000000000000000000000000000000000000000000000000000000000000000000000000008000000000000000000000000000000000000000000000000000000000000002647f8fe7a000000000000000000000000000000000000000000000000000000000000000808000000000000000000000000000000000000000000000000000000000000044000000000000000000000000d47140f6ab73f6d6b6675fb1610bb5e9b5d96fe500000000000000000000000000000000000000000000000000000000000001e0000000000000000000000000000000000000000000000000000000000000000000000000000000000000000000000000000000000000000000000000000000000000000000000000000000000000000000000000000000000000000000000000000000000000000000000000000000000000000000000000000000000000008000000000000000000000000000000000000000000000000000000000000000a405971224000000000000000000000000c02aaa39b223fe8d0a0e5c4f27ead9083c756cc2000000000000000000000000000000000000000000000000000000000000000000000000000000000000000000000000000000000000000000000000000000010000000000000000000000000000000100000000000000000000000000000001000000000000000000000000000000000000000000000000002f9ae7c8305c3600000000000000000000000000000000000000000000000000000000000000000000000000000000000000000000000000000000000000000000004470bdb947000000000000000000000000c02aaa39b223fe8d0a0e5c4f27ead9083c756cc2000000000000000000000000000000000000000000000ed2b525841adfc00000000000000000000000000000000000000000000000000000000000000000000000000000000000000000000000000000000000000000000000000000000000000000000000000000000000000000000000000000000000000000000000000000000000000000000000000000000000000000000000000000000000000000000000000000000000000000000000000000000000000000000000000000000000000000000000000000000000000000000000000000000000800000000000000000000000000000000000000000000000000000000000000184b3af37c000000000000000000000000000000000000000000000000000000000000000808000000000000000000000000000000000000000000000000000000000000024000000000000000000000000c02aaa39b223fe8d0a0e5c4f27ead9083c756cc20000000000000000000000000000000100000000000000000000000000000001000000000000000000000000c02aaa39b223fe8d0a0e5c4f27ead9083c756cc20000000000000000000000000000000000000000000000000000000000000000000000000000000000000000000000000000000000000000000000000000000000000000000000000000000000000000000000000000000000000000000000800000000000000000000000000000000000000000000000000000000000000044a9059cbb000000000000000000000000bc79855178842fdba0c353494895deef509e26bb00000000000000000000000000000000000000000000000000000000000000010000000000000000000000000000000000000000000000000000000000000000000000000000000000000000000000000000000000000000",
          "valueDecoded": [
            {
              "operation": 0,
              "to": "0x111111125434b319222CdBf8C261674aDB56F3ae",
              "value": "22",
              "data": "0x90411a32000000000000000000000000d47140f6ab73f6d6b6675fb1610bb5e9b5d96fe5000000000000000000000000000000000000000000000000000000000000006000000000000000000000000000000000000000000000000000000000000001c0000000000000000000000000eeeeeeeeeeeeeeeeeeeeeeeeeeeeeeeeeeeeeeee000000000000000000000000c02aaa39b223fe8d0a0e5c4f27ead9083c756cc2000000000000000000000000d47140f6ab73f6d6b6675fb1610bb5e9b5d96fe5000000000000000000000000bc79855178842fdba0c353494895deef509e26bb000000000000000000000000000000000000000000000ed2b525841adfc00000000000000000000000000000000000000000000000000ecee9b38efb1a680000000000000000000000000000000000000000000000000ed2b525841adfc000000000000000000000000000000000000000000000000000000000000000000001000000000000000000000000000000000000000000000000000000000000000000000000000000000000000000000000000000000000000000000000000001400000000000000000000000000000000000000000000000000000000000000000000000000000000000000000000000000000000000000000000000000000000300000000000000000000000000000000000000000000000000000000000000600000000000000000000000000000000000000000000000000000000000000440000000000000000000000000000000000000000000000000000000000000076000000000000000000000000000000000000000000000000000000000000000000000000000000000000000000000000000000000000000000000000000000000000000000000000000000000000000000000000000000000000000000000000000000000000000000000000000000000000000000000000000000000000000800000000000000000000000000000000000000000000000000000000000000324b3af37c000000000000000000000000000000000000000000000000000000000000000808000000000000000000000000000000000000000000000000000000000000024000000000000000000000000eeeeeeeeeeeeeeeeeeeeeeeeeeeeeeeeeeeeeeee0000000000000000000000000000001400000000000000000000000000000014000000000000000000000000000000000000000000000000000000000000000000000000000000000000000000000000000000000000000000000000000000000000000000000000000000000000000000000000000000000000000000000000000000000000000000000000000000000000000000000000000000000000008000000000000000000000000000000000000000000000000000000000000001e45636885000000000000000000000000000000000000000000000000000000000000000e00000000000000000000000000000000000000000000000000000000000000001000000000000000000000000eeeeeeeeeeeeeeeeeeeeeeeeeeeeeeeeeeeeeeee000000000000000000000000c02aaa39b223fe8d0a0e5c4f27ead9083c756cc2000000000000000000000000bc79855178842fdba0c353494895deef509e26bb000000000000000000000000d47140f6ab73f6d6b6675fb1610bb5e9b5d96fe5000000000000000000000000000000000000000000000ecee9b38efb1a68000000000000000000000000000000000000000000000000000000000000000000010000000000000000000000000000000000000000000000000000000000000020000000000000000000000000c02aaa39b223fe8d0a0e5c4f27ead9083c756cc20000000000000000000000000000000000000000000000000000000000000000000000000000000000000000000000000000000000000ed2b525841adfc0000000000000000000000000000000000000000000000000000000000000000000800000000000000000000000000000000000000000000000000000000000000004d0e30db0000000000000000000000000000000000000000000000000000000000000000000000000000000000000000000000000000000000000000000000000000000000000000000000000000000000000000000000000000000000000000000000000000000000000000000000000000000000000000000000000000000000000000000000000000000000000000000000000000000000000000000000000000000000000000000000000000000000000000000000000000000000000000000000000000000000000000000000000000000000000008000000000000000000000000000000000000000000000000000000000000002647f8fe7a000000000000000000000000000000000000000000000000000000000000000808000000000000000000000000000000000000000000000000000000000000044000000000000000000000000d47140f6ab73f6d6b6675fb1610bb5e9b5d96fe500000000000000000000000000000000000000000000000000000000000001e0000000000000000000000000000000000000000000000000000000000000000000000000000000000000000000000000000000000000000000000000000000000000000000000000000000000000000000000000000000000000000000000000000000000000000000000000000000000000000000000000000000000000008000000000000000000000000000000000000000000000000000000000000000a405971224000000000000000000000000c02aaa39b223fe8d0a0e5c4f27ead9083c756cc2000000000000000000000000000000000000000000000000000000000000000000000000000000000000000000000000000000000000000000000000000000010000000000000000000000000000000100000000000000000000000000000001000000000000000000000000000000000000000000000000002f9ae7c8305c3600000000000000000000000000000000000000000000000000000000000000000000000000000000000000000000000000000000000000000000004470bdb947000000000000000000000000c02aaa39b223fe8d0a0e5c4f27ead9083c756cc2000000000000000000000000000000000000000000000ed2b525841adfc00000000000000000000000000000000000000000000000000000000000000000000000000000000000000000000000000000000000000000000000000000000000000000000000000000000000000000000000000000000000000000000000000000000000000000000000000000000000000000000000000000000000000000000000000000000000000000000000000000000000000000000000000000000000000000000000000000000000000000000000000000000000800000000000000000000000000000000000000000000000000000000000000184b3af37c000000000000000000000000000000000000000000000000000000000000000808000000000000000000000000000000000000000000000000000000000000024000000000000000000000000c02aaa39b223fe8d0a0e5c4f27ead9083c756cc20000000000000000000000000000000100000000000000000000000000000001000000000000000000000000c02aaa39b223fe8d0a0e5c4f27ead9083c756cc20000000000000000000000000000000000000000000000000000000000000000000000000000000000000000000000000000000000000000000000000000000000000000000000000000000000000000000000000000000000000000000000800000000000000000000000000000000000000000000000000000000000000044a9059cbb000000000000000000000000bc79855178842fdba0c353494895deef509e26bb00000000000000000000000000000000000000000000000000000000000000010000000000000000000000000000000000000000000000000000000000000000000000000000000000000000000000000000000000000000",
              "dataDecoded": {
                "method": "swap",
                "parameters": [
                  {
                    "name": "caller",
                    "type": "address",
                    "value": "0xd47140F6Ab73f6d6B6675Fb1610Bb5E9B5d96FE5"
                  },
                  {
                    "name": "desc",
                    "type": "(address,address,address,address,uint256,uint256,uint256,uint256,address,bytes)",
                    "value": [
                      "0xEeeeeEeeeEeEeeEeEeEeeEEEeeeeEeeeeeeeEEeE",
                      "0xC02aaA39b223FE8D0A0e5C4F27eAD9083C756Cc2",
                      "0xd47140F6Ab73f6d6B6675Fb1610Bb5E9B5d96FE5",
                      "0xBc79855178842FDBA0c353494895DEEf509E26bB",
                      "70000000000000000000000",
                      "69930000000000000000000",
                      "70000000000000000000000",
                      "1",
                      "0x0000000000000000000000000000000000000000",
                      "0x"
                    ]
                  },
                  {
                    "name": "calls",
                    "type": "(uint256,uint256,uint256,bytes)[]",
                    "value": [
                      [
                        "0",
                        "0",
                        "0",
                        "0xb3af37c000000000000000000000000000000000000000000000000000000000000000808000000000000000000000000000000000000000000000000000000000000024000000000000000000000000eeeeeeeeeeeeeeeeeeeeeeeeeeeeeeeeeeeeeeee0000000000000000000000000000001400000000000000000000000000000014000000000000000000000000000000000000000000000000000000000000000000000000000000000000000000000000000000000000000000000000000000000000000000000000000000000000000000000000000000000000000000000000000000000000000000000000000000000000000000000000000000000000008000000000000000000000000000000000000000000000000000000000000001e45636885000000000000000000000000000000000000000000000000000000000000000e00000000000000000000000000000000000000000000000000000000000000001000000000000000000000000eeeeeeeeeeeeeeeeeeeeeeeeeeeeeeeeeeeeeeee000000000000000000000000c02aaa39b223fe8d0a0e5c4f27ead9083c756cc2000000000000000000000000bc79855178842fdba0c353494895deef509e26bb000000000000000000000000d47140f6ab73f6d6b6675fb1610bb5e9b5d96fe5000000000000000000000000000000000000000000000ecee9b38efb1a68000000000000000000000000000000000000000000000000000000000000000000010000000000000000000000000000000000000000000000000000000000000020000000000000000000000000c02aaa39b223fe8d0a0e5c4f27ead9083c756cc20000000000000000000000000000000000000000000000000000000000000000000000000000000000000000000000000000000000000ed2b525841adfc0000000000000000000000000000000000000000000000000000000000000000000800000000000000000000000000000000000000000000000000000000000000004d0e30db00000000000000000000000000000000000000000000000000000000000000000000000000000000000000000000000000000000000000000"
                      ],
                      [
                        "0",
                        "0",
                        "0",
                        "0x7f8fe7a000000000000000000000000000000000000000000000000000000000000000808000000000000000000000000000000000000000000000000000000000000044000000000000000000000000d47140f6ab73f6d6b6675fb1610bb5e9b5d96fe500000000000000000000000000000000000000000000000000000000000001e0000000000000000000000000000000000000000000000000000000000000000000000000000000000000000000000000000000000000000000000000000000000000000000000000000000000000000000000000000000000000000000000000000000000000000000000000000000000000000000000000000000000000008000000000000000000000000000000000000000000000000000000000000000a405971224000000000000000000000000c02aaa39b223fe8d0a0e5c4f27ead9083c756cc2000000000000000000000000000000000000000000000000000000000000000000000000000000000000000000000000000000000000000000000000000000010000000000000000000000000000000100000000000000000000000000000001000000000000000000000000000000000000000000000000002f9ae7c8305c3600000000000000000000000000000000000000000000000000000000000000000000000000000000000000000000000000000000000000000000004470bdb947000000000000000000000000c02aaa39b223fe8d0a0e5c4f27ead9083c756cc2000000000000000000000000000000000000000000000ed2b525841adfc0000000000000000000000000000000000000000000000000000000000000"
                      ],
                      [
                        "0",
                        "0",
                        "0",
                        "0xb3af37c000000000000000000000000000000000000000000000000000000000000000808000000000000000000000000000000000000000000000000000000000000024000000000000000000000000c02aaa39b223fe8d0a0e5c4f27ead9083c756cc20000000000000000000000000000000100000000000000000000000000000001000000000000000000000000c02aaa39b223fe8d0a0e5c4f27ead9083c756cc20000000000000000000000000000000000000000000000000000000000000000000000000000000000000000000000000000000000000000000000000000000000000000000000000000000000000000000000000000000000000000000000800000000000000000000000000000000000000000000000000000000000000044a9059cbb000000000000000000000000bc79855178842fdba0c353494895deef509e26bb000000000000000000000000000000000000000000000000000000000000000100000000000000000000000000000000000000000000000000000000"
                      ]
                    ]
                  }
                ]
              }
            }
          ]
        }
      ]
    },
    "to": {
      "value": "0x8D29bE29923b68abfDD21e541b9374737B49cdAD"
    },
    "value": "0",
    "operation": 1,
    "trustedDelegateCallTarget": true
  },
  "detailedExecutionInfo": {
    "type": "MULTISIG",
    "submittedAt": 1607346684674,
    "nonce": 160,
    "safeTxGas": "124625",
    "baseGas": "0",
    "gasPrice": "0",
    "gasToken": "0x0000000000000000000000000000000000000000",
    "refundReceiver": {
      "value": "0x0000000000000000000000000000000000000000"
    },
    "safeTxHash": "0x728e6dec56dc61523b56dc440e34c1c4c39c66895df8e5d3499ed1f7d4fcfe80",
    "executor": {
      "value": "0xe965484BA4250c446779D4703f1598DC2EA00d12"
    },
    "signers": [
      {
        "value": "0xBEA2F9227230976d2813a2f8b922c22bE1DE1B23"
      },
      {
        "value": "0x37e9F140A9Df5DCBc783C6c220660a4E15CBFe72"
      },
      {
        "value": "0xA3DAa0d9Ae02dAA17a664c232aDa1B739eF5ae8D"
      },
      {
        "value": "0xF2CeA96575d6b10f51d9aF3b10e3e4E5738aa6bd"
      },
      {
        "value": "0x65F8236309e5A99Ff0d129d04E486EBCE20DC7B0"
      }
    ],
    "confirmationsRequired": 2,
    "confirmations": [
      {
        "signer": {
          "value": "0xc9d486048A9B82172F6f2A2ce6D9024c9D1097dC"
        },
        "signature": "0xbd42f5c205b544cc6397c8c2e592ca4ade02b8681673cc8c555ff1777b002ee959c3cca243a77a2de1bbe1b61413342ac7d6416a31ec0ff31bb1029e921202ee1c",
        "submittedAt": 1607346684686
      },
      {
        "signer": {
          "value": "0xe965484BA4250c446779D4703f1598DC2EA00d12"
        },
        "signature": "0x000000000000000000000000e965484ba4250c446779d4703f1598dc2ea00d12000000000000000000000000000000000000000000000000000000000000000001",
        "submittedAt": 1607346715000
      }
    ]
  },
  "txHash": "0x4d84602bf94d099159baa41993edca288abb5f9795dd51cc14bd66195b9fdc77",
  "safeAppInfo": {
    "name": "WalletConnect",
    "url": "https://apps.gnosis-safe.io/walletConnect",
    "logoUri": "https://apps.gnosis-safe.io/walletConnect/walletConnect.jpg"
  }
}
