{
  "count": 614,
  "next": "https://safe-transaction.staging.gnosisdev.com/api/v1/safes/0x1230B3d59858296A31053C1b8562Ecf89A2f888b/all-transactions/?limit=20&offset=20&queued=false&trusted=true",
  "previous": null,
  "results": [
    {
      "created": "2020-12-01T18:04:14Z",
      "executionDate": "2020-12-01T18:04:14Z",
      "blockNumber": 7645325,
      "isSuccessful": true,
      "transactionHash": "0xcd10b23687bf336d0f4c0a3383590d3d1722aaa99a41fd0d289a5f69a8266c8f",
      "safe": "0x1230B3d59858296A31053C1b8562Ecf89A2f888b",
      "module": "0xCFbFaC74C26F8647cBDb8c5caf80BB5b32E43134",
      "to": "0xc778417E063141139Fce010982780140Aa0cD5Ab",
      "value": "0",
      "data": "0xa9059cbb000000000000000000000000f353ebba77e5e71c210599236686d51ca1f88b8400000000000000000000000000000000000000000000000000005af3107a4000",
      "operation": 0,
      "dataDecoded": {
        "method": "transfer",
        "parameters": [
          {
            "name": "to",
            "type": "address",
            "value": "0xF353eBBa77e5E71c210599236686D51cA1F88b84"
          },
          {
            "name": "value",
            "type": "uint256",
            "value": "100000000000000"
          }
        ]
      },
      "transfers": [
        {
          "type": "ERC20_TRANSFER",
          "executionDate": "2020-12-01T18:04:14Z",
          "blockNumber": 7645325,
          "transactionHash": "0xcd10b23687bf336d0f4c0a3383590d3d1722aaa99a41fd0d289a5f69a8266c8f",
          "to": "0xF353eBBa77e5E71c210599236686D51cA1F88b84",
          "value": "100000000000000",
          "tokenId": null,
          "tokenAddress": "0xc778417E063141139Fce010982780140Aa0cD5Ab",
          "tokenInfo": {
            "type": "ERC20",
            "address": "0xc778417E063141139Fce010982780140Aa0cD5Ab",
            "name": "Wrapped Ether",
            "symbol": "WETH",
            "decimals": 18,
            "logoUri": "https://example.com/0xc778417E063141139Fce010982780140Aa0cD5Ab.png"
          },
          "from": "0x1230B3d59858296A31053C1b8562Ecf89A2f888b"
        }
      ],
      "txType": "MODULE_TRANSACTION"
    },
    {
      "created": "2020-12-01T18:03:14Z",
      "executionDate": "2020-12-01T18:03:14Z",
      "blockNumber": 7645321,
      "isSuccessful": true,
      "transactionHash": "0x1cf24abdb39bb7b156677a128e709cea55c6991b12708904d1f0f3664ad6646e",
      "safe": "0x1230B3d59858296A31053C1b8562Ecf89A2f888b",
      "module": "0xCFbFaC74C26F8647cBDb8c5caf80BB5b32E43134",
      "to": "0xD9BA894E0097f8cC2BBc9D24D308b98e36dc6D02",
      "value": "0",
      "data": "0xa9059cbb000000000000000000000000f353ebba77e5e71c210599236686d51ca1f88b84000000000000000000000000000000000000000000000000002386f26fc10000",
      "operation": 0,
      "dataDecoded": {
        "method": "transfer",
        "parameters": [
          {
            "name": "to",
            "type": "address",
            "value": "0xF353eBBa77e5E71c210599236686D51cA1F88b84"
          },
          {
            "name": "value",
            "type": "uint256",
            "value": "10000000000000000"
          }
        ]
      },
      "transfers": [
        {
          "type": "ERC20_TRANSFER",
          "executionDate": "2020-12-01T18:03:14Z",
          "blockNumber": 7645321,
          "transactionHash": "0x1cf24abdb39bb7b156677a128e709cea55c6991b12708904d1f0f3664ad6646e",
          "to": "0xF353eBBa77e5E71c210599236686D51cA1F88b84",
          "value": "10000000000000000",
          "tokenId": null,
          "tokenAddress": "0xD9BA894E0097f8cC2BBc9D24D308b98e36dc6D02",
          "tokenInfo": {
            "type": "ERC20",
            "address": "0xD9BA894E0097f8cC2BBc9D24D308b98e36dc6D02",
            "name": "Compound USDT",
            "symbol": "USDT",
            "decimals": 18,
            "logoUri": "https://example.com/0xD9BA894E0097f8cC2BBc9D24D308b98e36dc6D02.png"
          },
          "from": "0x1230B3d59858296A31053C1b8562Ecf89A2f888b"
        }
      ],
      "txType": "MODULE_TRANSACTION"
    },
    {
      "created": "2020-12-01T17:51:10Z",
      "executionDate": "2020-12-01T17:51:10Z",
      "blockNumber": 7645273,
      "isSuccessful": true,
      "transactionHash": "0x3f12bb74cd91ef09d553f66e3623bceaf879ba3dcb325227b1fbf2455757891a",
      "safe": "0x1230B3d59858296A31053C1b8562Ecf89A2f888b",
      "module": "0xCFbFaC74C26F8647cBDb8c5caf80BB5b32E43134",
      "to": "0xD9BA894E0097f8cC2BBc9D24D308b98e36dc6D02",
      "value": "0",
      "data": "0xa9059cbb000000000000000000000000f353ebba77e5e71c210599236686d51ca1f88b84000000000000000000000000000000000000000000000000002386f26fc10000",
      "operation": 0,
      "dataDecoded": {
        "method": "transfer",
        "parameters": [
          {
            "name": "to",
            "type": "address",
            "value": "0xF353eBBa77e5E71c210599236686D51cA1F88b84"
          },
          {
            "name": "value",
            "type": "uint256",
            "value": "10000000000000000"
          }
        ]
      },
      "transfers": [
        {
          "type": "ERC20_TRANSFER",
          "executionDate": "2020-12-01T17:51:10Z",
          "blockNumber": 7645273,
          "transactionHash": "0x3f12bb74cd91ef09d553f66e3623bceaf879ba3dcb325227b1fbf2455757891a",
          "to": "0xF353eBBa77e5E71c210599236686D51cA1F88b84",
          "value": "10000000000000000",
          "tokenId": null,
          "tokenAddress": "0xD9BA894E0097f8cC2BBc9D24D308b98e36dc6D02",
          "tokenInfo": {
            "type": "ERC20",
            "address": "0xD9BA894E0097f8cC2BBc9D24D308b98e36dc6D02",
            "name": "Compound USDT",
            "symbol": "USDT",
            "decimals": 18,
            "logoUri": "https://example.com/0xD9BA894E0097f8cC2BBc9D24D308b98e36dc6D02.png"
          },
          "from": "0x1230B3d59858296A31053C1b8562Ecf89A2f888b"
        }
      ],
      "txType": "MODULE_TRANSACTION"
    },
    {
      "executionDate": "2020-11-30T13:47:13Z",
      "to": "0xf2565317F3Ae8Ae9EA98E9Fe1e7FADC77F823cbD",
      "data": "0x6a76120200000000000000000000000063704b63ac04f3a173dfe677c7e3d330c347cd88000000000000000000000000000000000000000000000000000000000000000000000000000000000000000000000000000000000000000000000000000001400000000000000000000000000000000000000000000000000000000000000000000000000000000000000000000000000000000000000000000000000000c3af000000000000000000000000000000000000000000000000000000000000000000000000000000000000000000000000000000000000000000000000000000000000000000000000000000000000000000000000000000000000000000000000000000000000000000000000000000000000000000000000000000000000000000000000000000000000000000000000000000000000000000000000000001e0000000000000000000000000000000000000000000000000000000000000006423b872dd0000000000000000000000001230b3d59858296a31053c1b8562ecf89a2f888b000000000000000000000000f353ebba77e5e71c210599236686d51ca1f88b84000000000000000000000000000000000000000000000000016345785d8a000000000000000000000000000000000000000000000000000000000000000000000000000000000000000000000000000000000000000000000000008200000000000000000000000065f8236309e5a99ff0d129d04e486ebce20dc7b0000000000000000000000000000000000000000000000000000000000000000001445651ff151d86b53f834cabfe35dc2c5078c845e0ec32466f9e72b1e9b1284353aa1d906c4ab02a5d96968b8b1fc30222249e6f4e2c47824d82a7389adeca9a1c000000000000000000000000000000000000000000000000000000000000",
      "txHash": "0x021d4d8cb68f3f772906b58f97b66c6ead228c252627c5b1aff4b496d4ff0c2d",
      "blockNumber": 7638826,
      "transfers": [
        {
          "type": "ERC20_TRANSFER",
          "executionDate": "2020-11-30T13:47:13Z",
          "blockNumber": 7638826,
          "transactionHash": "0x021d4d8cb68f3f772906b58f97b66c6ead228c252627c5b1aff4b496d4ff0c2d",
          "to": "0xF353eBBa77e5E71c210599236686D51cA1F88b84",
          "value": "100000000000000000",
          "tokenId": null,
          "tokenAddress": "0x63704B63Ac04f3a173Dfe677C7e3D330c347CD88",
          "tokenInfo": {
            "type": "ERC20",
            "address": "0x63704B63Ac04f3a173Dfe677C7e3D330c347CD88",
            "name": "TEST AQER",
            "symbol": "AQER",
            "decimals": 18,
            "logoUri": "https://example.com/0x63704B63Ac04f3a173Dfe677C7e3D330c347CD88.png"
          },
          "from": "0x1230B3d59858296A31053C1b8562Ecf89A2f888b"
        }
      ],
      "txType": "ETHEREUM_TRANSACTION",
      "from": "0x65F8236309e5A99Ff0d129d04E486EBCE20DC7B0"
    },
    {
      "executionDate": "2020-11-30T13:39:41Z",
      "to": "0xf2565317F3Ae8Ae9EA98E9Fe1e7FADC77F823cbD",
      "data": "0x6a76120200000000000000000000000063704b63ac04f3a173dfe677c7e3d330c347cd880000000000000000000000000000000000000000000000000000000000000000000000000000000000000000000000000000000000000000000000000000014000000000000000000000000000000000000000000000000000000000000000000000000000000000000000000000000000000000000000000000000000008917000000000000000000000000000000000000000000000000000000000000000000000000000000000000000000000000000000000000000000000000000000000000000000000000000000000000000000000000000000000000000000000000000000000000000000000000000000000000000000000000000000000000000000000000000000000000000000000000000000000000000000000000000001e0000000000000000000000000000000000000000000000000000000000000006423b872dd0000000000000000000000001230b3d59858296a31053c1b8562ecf89a2f888b000000000000000000000000f2565317f3ae8ae9ea98e9fe1e7fadc77f823cbd000000000000000000000000000000000000000000000000016345785d8a000000000000000000000000000000000000000000000000000000000000000000000000000000000000000000000000000000000000000000000000008261a6df63b95ccc29e05f9789e6ffb8a956cf6381ee183d29d031f31a3ad7d1216a52602e0a108a61585e8d8f357a3f3a7605eb9e3c17a5cf34617b2973adb45e1c000000000000000000000000f2cea96575d6b10f51d9af3b10e3e4e5738aa6bd000000000000000000000000000000000000000000000000000000000000000001000000000000000000000000000000000000000000000000000000000000",
      "txHash": "0x5f4b7555f8e977ae302ab4125de685ccfacf52ac70e6f0aa2939bcb347f9a732",
      "blockNumber": 7638796,
      "transfers": [
        {
          "type": "ERC20_TRANSFER",
          "executionDate": "2020-11-30T13:39:41Z",
          "blockNumber": 7638796,
          "transactionHash": "0x5f4b7555f8e977ae302ab4125de685ccfacf52ac70e6f0aa2939bcb347f9a732",
          "to": "0xf2565317F3Ae8Ae9EA98E9Fe1e7FADC77F823cbD",
          "value": "100000000000000000",
          "tokenId": null,
          "tokenAddress": "0x63704B63Ac04f3a173Dfe677C7e3D330c347CD88",
          "tokenInfo": {
            "type": "ERC20",
            "address": "0x63704B63Ac04f3a173Dfe677C7e3D330c347CD88",
            "name": "TEST AQER",
            "symbol": "AQER",
            "decimals": 18,
            "logoUri": "https://example.com/0x63704B63Ac04f3a173Dfe677C7e3D330c347CD88.png"
          },
          "from": "0x1230B3d59858296A31053C1b8562Ecf89A2f888b"
        }
      ],
      "txType": "ETHEREUM_TRANSACTION",
      "from": "0xF2CeA96575d6b10f51d9aF3b10e3e4E5738aa6bd"
    },
    {
      "executionDate": "2020-11-30T12:35:25Z",
      "to": "0xf2565317F3Ae8Ae9EA98E9Fe1e7FADC77F823cbD",
      "data": "0x6a76120200000000000000000000000081d0ff4fe216fb6ac98ed609086a92d94dbfe666000000000000000000000000000000000000000000000000000000000000000000000000000000000000000000000000000000000000000000000000000001400000000000000000000000000000000000000000000000000000000000000000000000000000000000000000000000000000000000000000000000000000687a000000000000000000000000000000000000000000000000000000000000000000000000000000000000000000000000000000000000000000000000000000000000000000000000000000000000000000000000000000000000000000000000000000000000000000000000000000000000000000000000000000000000000000000000000000000000000000000000000000000000000000000000000001c00000000000000000000000000000000000000000000000000000000000000044a9059cbb0000000000000000000000001230b3d59858296a31053c1b8562ecf89a2f888b00000000000000000000000000000000000000000000000000016bcc41e900000000000000000000000000000000000000000000000000000000000000000000000000000000000000000000000000000000000000000000000000c375e6b6d79366efa60b836fe0be0dffe5823cee21767a8f03ed4f4e55456c54134e44bdafc8d35b25b8ab990e281f5ceb68e1b3bb5be4242231e7e05a02fffb761b000000000000000000000000bea2f9227230976d2813a2f8b922c22be1de1b23000000000000000000000000000000000000000000000000000000000000000001e39b6ffeceaf836a547b9cf543fe9a57d1a80b55148d6a6e5c8581acd6cfceab0c6b2364a1a6298ae75d180e5a233ee08a371fa002afe9e46a3007c4fa5959511c0000000000000000000000000000000000000000000000000000000000",
      "txHash": "0xaafed95936f9d71eb8d9612e83f3f93f9decf33f11bbb4aa79cae98966ffa7fe",
      "blockNumber": 7638540,
      "transfers": [
        {
          "type": "ERC20_TRANSFER",
          "executionDate": "2020-11-30T12:35:25Z",
          "blockNumber": 7638540,
          "transactionHash": "0xaafed95936f9d71eb8d9612e83f3f93f9decf33f11bbb4aa79cae98966ffa7fe",
          "to": "0x1230B3d59858296A31053C1b8562Ecf89A2f888b",
          "value": "400000000000000",
          "tokenId": null,
          "tokenAddress": "0x81D0FF4fE216fB6aC98ED609086A92d94dbfE666",
          "tokenInfo": {
            "type": "ERC20",
            "address": "0x81D0FF4fE216fB6aC98ED609086A92d94dbfE666",
            "name": "LS",
            "symbol": "LS",
            "decimals": 18,
            "logoUri": "https://example.com/0x81D0FF4fE216fB6aC98ED609086A92d94dbfE666.png"
          },
          "from": "0xf2565317F3Ae8Ae9EA98E9Fe1e7FADC77F823cbD"
        }
      ],
      "txType": "ETHEREUM_TRANSACTION",
      "from": "0xBEA2F9227230976d2813a2f8b922c22bE1DE1B23"
    }
  ]
}