{
  "safe": "0x1230B3d59858296A31053C1b8562Ecf89A2f888b",
  "to": "0xD81F7D71ed570D121A1Ef9e3Bc0fc2bd6192De46",
  "value": "0",
  "data": "0xa9059cbb000000000000000000000000f353ebba77e5e71c210599236686d51ca1f88b840000000000000000000000000000000000000000000000000000000000000014",
  "operation": 0,
  "gasToken": "0x0000000000000000000000000000000000000000",
  "safeTxGas": 26746,
  "baseGas": 0,
  "gasPrice": "0",
  "refundReceiver": "0x0000000000000000000000000000000000000000",
  "nonce": 393,
  "executionDate": "2020-12-10T13:50:59Z",
  "submissionDate": "2020-12-10T13:50:59Z",
  "modified": "2020-12-10T13:50:59Z",
  "blockNumber": 7695627,
  "transactionHash": "0xd145bafe9766613d431a898a7ad95b69481152b4e9f846bd5fdc334ec8d78266",
  "safeTxHash": "0x2e4af4b451a493470f38625c5f78f710f02303eb32780896cb55357c00d48faa",
  "executor": "0xF2CeA96575d6b10f51d9aF3b10e3e4E5738aa6bd",
  "isExecuted": true,
  "isSuccessful": true,
  "ethGasPrice": "1000000000",
  "gasUsed": 63081,
  "fee": "63081000000000",
  "origin": null,
  "dataDecoded": {
    "method": "transfer",
    "parameters": [
      {
        "name": "to",
        "type": "address",
        "value": "0xF353eBBa77e5E71c210599236686D51cA1F88b84"
      },
      {
        "name": "value",
        "type": "uint256",
        "value": "20"
      }
    ]
  },
  "confirmationsRequired": 2,
  "confirmations": [
    {
      "owner": "0x65F8236309e5A99Ff0d129d04E486EBCE20DC7B0",
      "submissionDate": "2020-12-10T13:50:59Z",
      "transactionHash": null,
      "signature": "0x1f6d2f092022fcbe6b10f0514255eb4205bb2302ac8789311b1aa2f0a134a7026458c827b42ccb577ffa7a5bc43582b4a23183ab811271ddc9d78446784fa3701b",
      "signatureType": "EOA"
    },
    {
      "owner": "0xF2CeA96575d6b10f51d9aF3b10e3e4E5738aa6bd",
      "submissionDate": "2020-12-10T13:50:59Z",
      "transactionHash": null,
      "signature": "0x000000000000000000000000f2cea96575d6b10f51d9af3b10e3e4e5738aa6bd000000000000000000000000000000000000000000000000000000000000000001",
      "signatureType": "APPROVED_HASH"
    }
  ],
  "signatures": "0x1f6d2f092022fcbe6b10f0514255eb4205bb2302ac8789311b1aa2f0a134a7026458c827b42ccb577ffa7a5bc43582b4a23183ab811271ddc9d78446784fa3701b000000000000000000000000f2cea96575d6b10f51d9af3b10e3e4e5738aa6bd000000000000000000000000000000000000000000000000000000000000000001",
  "trusted": false
}
