{
  "created": "2020-06-15T07:40:39Z",
  "creator": "0xBe8C10Dbf4c6148f9834C56C3331f8191f355552",
  "transactionHash": "0xae835253566d4e04cd0493304aa588fd3a14bea665cb35212ff6d2f765373234",
  "factoryAddress": "0x76E2cFc1F5Fa8F6a5b3fC4c8F4788F0116861F9B",
  "masterCopy": "0x34CfAC646f301356fAa8B21e94227e3583Fe3F5F",
  "setupData": "0xb63e800d0000000000000000000000000000000000000000000000000000000000000100000000000000000000000000000000000000000000000000000000000000000100000000000000000000000000000000000000000000000000000000000000000000000000000000000000000000000000000000000000000000000000000140000000000000000000000000d5d82b6addc9027b22dca772aa68d5d74cdbdf440000000000000000000000000000000000000000000000000000000000000000000000000000000000000000000000000000000000000000000000000000000000000000000000000000000000000000000000000000000000000000000000000000000000000000000000000000000000000000000000000000000000000001000000000000000000000000be8c10dbf4c6148f9834c56c3331f8191f3555520000000000000000000000000000000000000000000000000000000000000000",
  "dataDecoded": {
    "method": "setup",
    "parameters": [
      {
        "name": "_owners",
        "type": "address[]",
        "value": [
          "0xBe8C10Dbf4c6148f9834C56C3331f8191f355552"
        ]
      },
      {
        "name": "_threshold",
        "type": "uint256",
        "value": "1"
      },
      {
        "name": "to",
        "type": "address",
        "value": "0x0000000000000000000000000000000000000000"
      },
      {
        "name": "data",
        "type": "bytes",
        "value": "0x"
      },
      {
        "name": "fallbackHandler",
        "type": "address",
        "value": "0xd5D82B6aDDc9027B22dCA772Aa68D5d74cdBdF44"
      },
      {
        "name": "paymentToken",
        "type": "address",
        "value": "0x0000000000000000000000000000000000000000"
      },
      {
        "name": "payment",
        "type": "uint256",
        "value": "0"
      },
      {
        "name": "paymentReceiver",
        "type": "address",
        "value": "0x0000000000000000000000000000000000000000"
      }
    ]
  }
}
