{
  "created": "2020-12-01T18:04:14Z",
  "executionDate": "2020-12-01T18:04:14Z",
  "blockNumber": 7645325,
  "isSuccessful": true,
  "transactionHash": "0xcd10b23687bf336d0f4c0a3383590d3d1722aaa99a41fd0d289a5f69a8266c8f",
  "safe": "0x1230B3d59858296A31053C1b8562Ecf89A2f888b",
  "module": "0xCFbFaC74C26F8647cBDb8c5caf80BB5b32E43134",
  "to": "0xD9BA894E0097f8cC2BBc9D24D308b98e36dc6D02",
  "value": "0",
  "data": "0xa9059cbb000000000000000000000000f353ebba77e5e71c210599236686d51ca1f88b8400000000000000000000000000000000000000000000000000005af3107a4000",
  "operation": 0,
  "dataDecoded": {
    "method": "transfer",
    "parameters": [
      {
        "name": "to",
        "type": "address",
        "value": "0xF353eBBa77e5E71c210599236686D51cA1F88b84"
      },
      {
        "name": "value",
        "type": "uint256",
        "value": "100000000000000"
      }
    ]
  },
  "transfers": [
    {
      "type": "ERC20_TRANSFER",
      "executionDate": "2020-12-01T18:04:14Z",
      "blockNumber": 7645325,
      "transactionHash": "0xcd10b23687bf336d0f4c0a3383590d3d1722aaa99a41fd0d289a5f69a8266c8f",
      "to": "0xF353eBBa77e5E71c210599236686D51cA1F88b84",
      "value": "100000000000000",
      "tokenId": null,
      "tokenAddress": "0xD9BA894E0097f8cC2BBc9D24D308b98e36dc6D02",
      "tokenInfo": {
        "type": "ERC20",
        "address": "0xD9BA894E0097f8cC2BBc9D24D308b98e36dc6D02",
        "name": "Compound USDT",
        "symbol": "USDT",
        "decimals": 18,
        "logoUri": "https://gnosis-safe-token-logos.s3.amazonaws.com/0xD9BA894E0097f8cC2BBc9D24D308b98e36dc6D02.png"
      },
      "from": "0x1230B3d59858296A31053C1b8562Ecf89A2f888b"
    }
  ],
  "txType": "MODULE_TRANSACTION"
}
