{
  "safe": "0x1230B3d59858296A31053C1b8562Ecf89A2f888b",
  "to": "0xD9BA894E0097f8cC2BBc9D24D308b98e36dc6D02",
  "value": "0",
  "data": "0x095ea7b3000000000000000000000000ae9844f89d98c150f5e61bfc676d68b4921559900000000000000000000000000000000000000000000000000001c6bf52634000",
  "operation": 0,
  "gasToken": "0x0000000000000000000000000000000000000000",
  "safeTxGas": 43485,
  "baseGas": 0,
  "gasPrice": "0",
  "refundReceiver": "0x0000000000000000000000000000000000000000",
  "nonce": 84,
  "executionDate": "2020-06-22T18:00:54Z",
  "submissionDate": "2020-06-22T14:58:34.037981Z",
  "modified": "2020-06-22T14:58:34.037981Z",
  "blockNumber": 6712892,
  "transactionHash": "0x0ebb2c317f55c96469e0ed2014f5833dc02a70b42f0ac52f4630938900caa698",
  "safeTxHash": "0x65df8a1e5a40703d9c67d5df6f9b552d3830faf0507c3d7350ba3764d3a68621",
  "executor": "0xF2CeA96575d6b10f51d9aF3b10e3e4E5738aa6bd",
  "isExecuted": true,
  "isSuccessful": true,
  "ethGasPrice": "1000000000",
  "gasUsed": 69856,
  "fee": "69856000000000",
  "origin": null,
  "dataDecoded": {
    "method": "approve",
    "parameters": [
      {
        "name": "spender",
        "type": "address",
        "value": "0xae9844F89D98c150F5e61bfC676D68b492155990"
      },
      {
        "name": "value",
        "type": "uint256",
        "value": "500000000000000"
      }
    ]
  },
  "confirmationsRequired": 2,
  "confirmations": [
    {
      "owner": "0x65F8236309e5A99Ff0d129d04E486EBCE20DC7B0",
      "submissionDate": "2020-06-22T14:58:34.055882Z",
      "transactionHash": null,
      "confirmationType": "CONFIRMATION",
      "signature": "0x83b1506c409918f21031e93ed2f62310a5e0c05b1be89242a6a266a7de4af7bc6094e206b33387b8d4465af6087a4d2158815e613aeb186d88d9a1973e00bbe81b",
      "signatureType": "EOA"
    },
    {
      "owner": "0xF2CeA96575d6b10f51d9aF3b10e3e4E5738aa6bd",
      "submissionDate": "2020-06-22T15:02:22.231589Z",
      "transactionHash": null,
      "confirmationType": "CONFIRMATION",
      "signature": "0x000000000000000000000000f2cea96575d6b10f51d9af3b10e3e4e5738aa6bd000000000000000000000000000000000000000000000000000000000000000001",
      "signatureType": "APPROVED_HASH"
    }
  ],
  "signatures": "0x83b1506c409918f21031e93ed2f62310a5e0c05b1be89242a6a266a7de4af7bc6094e206b33387b8d4465af6087a4d2158815e613aeb186d88d9a1973e00bbe81b000000000000000000000000f2cea96575d6b10f51d9af3b10e3e4e5738aa6bd000000000000000000000000000000000000000000000000000000000000000001",
  "transfers": [],
  "txType": "MULTISIG_TRANSACTION"
}