{
  "txInfo": {
    "type": "Custom",
    "to": {
      "value": "0x37D94d4E230859f83c0868CebEd8CcB83A765cee"
    },
    "dataSize": "68",
    "value": "0",
    "methodName": "approve",
    "isCancellation": false
  },
  "txData": {
    "hexData": "0x095ea7b3000000000000000000000000ae9844f89d98c150f5e61bfc676d68b4921559900000000000000000000000000000000000000000000000000001c6bf52634000",
    "dataDecoded": {
      "method": "approve",
      "parameters": [
        {
          "name": "spender",
          "type": "address",
          "value": "0xae9844F89D98c150F5e61bfC676D68b492155990"
        },
        {
          "name": "value",
          "type": "uint256",
          "value": "500000000000000"
        }
      ]
    },
    "to": {
      "value": "0x37D94d4E230859f83c0868CebEd8CcB83A765cee"
    },
    "value": "0",
    "operation": 0
  }
}
