{
  "method": "multiSend",
  "parameters": [
    {
      "name": "transactions",
      "type": "bytes",
      "value": "0x0084fd13abadf6f5f6c20f5482f264b71f353cc22d00000000000000000000000000000000000000000000000000000000000000000000000000000000000000000000000000000000000000000000000000000044a9059cbb00000000000000000000000084fd13abadf6f5f6c20f5482f264b71f353cc22d0000000000000000000000000000000000000000000000000000000000bc614e0068881260bd04e9dac7f77a314360ce05435b4818000000000000000000000000000000000000000000000000000000000000000000000000000000000000000000000000000000000000000000000000000000e48d80ff0a000000000000000000000000000000000000000000000000000000000000002000000000000000000000000000000000000000000000000000000000000000990084fd13abadf6f5f6c20f5482f264b71f353cc22d00000000000000000000000000000000000000000000000000000000000000000000000000000000000000000000000000000000000000000000000000000044a9059cbb00000000000000000000000084fd13abadf6f5f6c20f5482f264b71f353cc22d0000000000000000000000000000000000000000000000000000000000bc614e00000000000000",
      "valueDecoded": [
        {
          "operation": 0,
          "to": "0xEeeeeEeeeEeEeeEeEeEeeEEEeeeeEeeeeeeeEEeE",
          "value": "0",
          "data": "0xa9059cbb00000000000000000000000084fd13abadf6f5f6c20f5482f264b71f353cc22d0000000000000000000000000000000000000000000000000000000000bc614e",
          "dataDecoded": {
            "method": "transfer",
            "parameters": [
              {
                "name": "to",
                "type": "address",
                "value": "0x991c44331f0E59510Bcff76edBA06C3f552Eef8B"
              },
              {
                "name": "value",
                "type": "uint256",
                "value": "12345678"
              }
            ]
          }
        },
        {
          "operation": 0,
          "to": "0x68881260bd04E9dAc7F77a314360ce05435B4818",
          "value": "0",
          "data": "0x8d80ff0a000000000000000000000000000000000000000000000000000000000000002000000000000000000000000000000000000000000000000000000000000000990084fd13abadf6f5f6c20f5482f264b71f353cc22d00000000000000000000000000000000000000000000000000000000000000000000000000000000000000000000000000000000000000000000000000000044a9059cbb00000000000000000000000084fd13abadf6f5f6c20f5482f264b71f353cc22d0000000000000000000000000000000000000000000000000000000000bc614e00000000000000",
          "dataDecoded": {
            "method": "multiSend",
            "parameters": [
              {
                "name": "transactions",
                "type": "bytes",
                "value": "0x0084fd13abadf6f5f6c20f5482f264b71f353cc22d00000000000000000000000000000000000000000000000000000000000000000000000000000000000000000000000000000000000000000000000000000044a9059cbb00000000000000000000000084fd13abadf6f5f6c20f5482f264b71f353cc22d0000000000000000000000000000000000000000000000000000000000bc614e",
                "valueDecoded": [
                  {
                    "operation": 0,
                    "to": "0x84fd13aBadF6F5F6c20F5482F264b71F353cc22d",
                    "value": "0",
                    "data": "0xa9059cbb00000000000000000000000084fd13abadf6f5f6c20f5482f264b71f353cc22d0000000000000000000000000000000000000000000000000000000000bc614e",
                    "dataDecoded": {
                      "method": "transfer",
                      "parameters": [
                        {
                          "name": "to",
                          "type": "address",
                          "value": "0x84fd13aBadF6F5F6c20F5482F264b71F353cc22d"
                        },
                        {
                          "name": "value",
                          "type": "uint256",
                          "value": "12345678"
                        }
                      ]
                    }
                  }
                ]
              }
            ]
          }
        }
      ]
    }
  ]
}