{
  "count": 5,
  "next": null,
  "previous": null,
  "results": [
    {
      "safe": "0x1230B3d59858296A31053C1b8562Ecf89A2f888b",
      "to": "0xD81F7D71ed570D121A1Ef9e3Bc0fc2bd6192De46",
      "value": "0",
      "data": "0xa9059cbb000000000000000000000000f2565317f3ae8ae9ea98e9fe1e7fadc77f823cbd000000000000000000000000000000000000000000000000000000000000000a",
      "operation": 0,
      "gasToken": "0x0000000000000000000000000000000000000000",
      "safeTxGas": 41746,
      "baseGas": 0,
      "gasPrice": "0",
      "refundReceiver": "0x0000000000000000000000000000000000000000",
      "nonce": 390,
      "executionDate": null,
      "submissionDate": "2020-12-10T12:08:52.118978Z",
      "modified": "2020-12-10T12:08:52.118978Z",
      "blockNumber": null,
      "transactionHash": null,
      "safeTxHash": "0xb5b93b0f50a0526002be99dfce1c545d11d7addd192b1430b8ccb62de78346a4",
      "executor": null,
      "isExecuted": false,
      "isSuccessful": null,
      "ethGasPrice": null,
      "gasUsed": null,
      "fee": null,
      "origin": null,
      "dataDecoded": {
        "method": "transfer",
        "parameters": [
          {
            "name": "to",
            "type": "address",
            "value": "0xf2565317F3Ae8Ae9EA98E9Fe1e7FADC77F823cbD"
          },
          {
            "name": "value",
            "type": "uint256",
            "value": "10"
          }
        ]
      },
      "confirmationsRequired": null,
      "confirmations": [
        {
          "owner": "0xF2CeA96575d6b10f51d9aF3b10e3e4E5738aa6bd",
          "submissionDate": "2020-12-10T12:08:52.134622Z",
          "transactionHash": null,
          "confirmationType": "CONFIRMATION",
          "signature": "0x2c51c9226a904db857ce4bb759c6f6093c5ea68e611f96fc4caf5e56d28593b534d6abd59f3ab03b652e3efcd0879207a28babbed9878021ee5134791cbe2b341c",
          "signatureType": "EOA"
        }
      ],
      "signatures": null
    },
    {
      "safe": "0x1230B3d59858296A31053C1b8562Ecf89A2f888b",
      "to": "0xD81F7D71ed570D121A1Ef9e3Bc0fc2bd6192De46",
      "value": "0",
      "data": "0xa9059cbb000000000000000000000000f2565317f3ae8ae9ea98e9fe1e7fadc77f823cbd000000000000000000000000000000000000000000000000000000000000000a",
      "operation": 0,
      "gasToken": "0x0000000000000000000000000000000000000000",
      "safeTxGas": 41746,
      "baseGas": 0,
      "gasPrice": "0",
      "refundReceiver": "0x0000000000000000000000000000000000000000",
      "nonce": 391,
      "executionDate": null,
      "submissionDate": "2020-12-10T12:09:28.696432Z",
      "modified": "2020-12-10T12:09:28.696432Z",
      "blockNumber": null,
      "transactionHash": null,
      "safeTxHash": "0x8623ce29352039e1751d1b6d20cc6f9713b8f3e33afe4cff6668edc336105c45",
      "executor": null,
      "isExecuted": false,
      "isSuccessful": null,
      "ethGasPrice": null,
      "gasUsed": null,
      "fee": null,
      "origin": null,
      "dataDecoded": {
        "method": "transfer",
        "parameters": [
          {
            "name": "to",
            "type": "address",
            "value": "0xf2565317F3Ae8Ae9EA98E9Fe1e7FADC77F823cbD"
          },
          {
            "name": "value",
            "type": "uint256",
            "value": "10"
          }
        ]
      },
      "confirmationsRequired": null,
      "confirmations": [
        {
          "owner": "0xF2CeA96575d6b10f51d9aF3b10e3e4E5738aa6bd",
          "submissionDate": "2020-12-10T12:09:28.800460Z",
          "transactionHash": null,
          "confirmationType": "CONFIRMATION",
          "signature": "0x1764ad0ef8418fcc06211bbfe738d059f801dede43e30d1a0781869df97582c4433410d58ac1f28f7b047d562c083c6dfed4299ced44cc79721daa99a0e4e2de1b",
          "signatureType": "EOA"
        }
      ],
      "signatures": null
    },
    {
      "safe": "0x1230B3d59858296A31053C1b8562Ecf89A2f888b",
      "to": "0xD81F7D71ed570D121A1Ef9e3Bc0fc2bd6192De46",
      "value": "0",
      "data": "0xa9059cbb000000000000000000000000f2565317f3ae8ae9ea98e9fe1e7fadc77f823cbd000000000000000000000000000000000000000000000000000000000000000a",
      "operation": 0,
      "gasToken": "0x0000000000000000000000000000000000000000",
      "safeTxGas": 41746,
      "baseGas": 0,
      "gasPrice": "0",
      "refundReceiver": "0x0000000000000000000000000000000000000000",
      "nonce": 392,
      "executionDate": null,
      "submissionDate": "2020-12-10T12:10:42.476237Z",
      "modified": "2020-12-10T12:10:42.476237Z",
      "blockNumber": null,
      "transactionHash": null,
      "safeTxHash": "0x0fe072e76498e0db46fc79113662026a4f8fb34e840491aefeff6dec21c766cb",
      "executor": null,
      "isExecuted": false,
      "isSuccessful": null,
      "ethGasPrice": null,
      "gasUsed": null,
      "fee": null,
      "origin": null,
      "dataDecoded": {
        "method": "transfer",
        "parameters": [
          {
            "name": "to",
            "type": "address",
            "value": "0xf2565317F3Ae8Ae9EA98E9Fe1e7FADC77F823cbD"
          },
          {
            "name": "value",
            "type": "uint256",
            "value": "10"
          }
        ]
      },
      "confirmationsRequired": null,
      "confirmations": [
        {
          "owner": "0xF2CeA96575d6b10f51d9aF3b10e3e4E5738aa6bd",
          "submissionDate": "2020-12-10T12:10:42.600252Z",
          "transactionHash": null,
          "confirmationType": "CONFIRMATION",
          "signature": "0x04027fccf5b43964ffbe8111f13fb7e53541da7c0752a31bfacc817cec2a1b1748e6ff6ae133238b6b43dd84191823bef2fd9841762c47faa989a503dcef4a0c1c",
          "signatureType": "EOA"
        }
      ],
      "signatures": null
    },
    {
      "safe": "0x1230B3d59858296A31053C1b8562Ecf89A2f888b",
      "to": "0xD81F7D71ed570D121A1Ef9e3Bc0fc2bd6192De46",
      "value": "0",
      "data": "0xa9059cbb000000000000000000000000f353ebba77e5e71c210599236686d51ca1f88b840000000000000000000000000000000000000000000000000000000000000014",
      "operation": 0,
      "gasToken": "0x0000000000000000000000000000000000000000",
      "safeTxGas": 26746,
      "baseGas": 0,
      "gasPrice": "0",
      "refundReceiver": "0x0000000000000000000000000000000000000000",
      "nonce": 393,
      "executionDate": null,
      "submissionDate": "2020-12-10T12:11:24.354944Z",
      "modified": "2020-12-10T12:11:24.354944Z",
      "blockNumber": null,
      "transactionHash": null,
      "safeTxHash": "0x2e4af4b451a493470f38625c5f78f710f02303eb32780896cb55357c00d48faa",
      "executor": null,
      "isExecuted": false,
      "isSuccessful": null,
      "ethGasPrice": null,
      "gasUsed": null,
      "fee": null,
      "origin": null,
      "dataDecoded": {
        "method": "transfer",
        "parameters": [
          {
            "name": "to",
            "type": "address",
            "value": "0xF353eBBa77e5E71c210599236686D51cA1F88b84"
          },
          {
            "name": "value",
            "type": "uint256",
            "value": "20"
          }
        ]
      },
      "confirmationsRequired": null,
      "confirmations": [
        {
          "owner": "0xF2CeA96575d6b10f51d9aF3b10e3e4E5738aa6bd",
          "submissionDate": "2020-12-10T12:11:24.377002Z",
          "transactionHash": null,
          "confirmationType": "CONFIRMATION",
          "signature": "0xd1f7a792512199a8cfb3e8745a38faf7b8383ab3eb4c1eda0ce3203283e535174012da4583dbc2f9c8c4329d7b65d4b2962450580cddd59fb2ecfc26b951e94d1c",
          "signatureType": "EOA"
        }
      ],
      "signatures": null
    },
    {
      "safe": "0x1230B3d59858296A31053C1b8562Ecf89A2f888b",
      "to": "0xD81F7D71ed570D121A1Ef9e3Bc0fc2bd6192De46",
      "value": "0",
      "data": "0xa9059cbb000000000000000000000000f353ebba77e5e71c210599236686d51ca1f88b840000000000000000000000000000000000000000000000000000000000000014",
      "operation": 0,
      "gasToken": "0x0000000000000000000000000000000000000000",
      "safeTxGas": 26746,
      "baseGas": 0,
      "gasPrice": "0",
      "refundReceiver": "0x0000000000000000000000000000000000000000",
      "nonce": 394,
      "executionDate": null,
      "submissionDate": "2020-12-10T12:13:44.072469Z",
      "modified": "2020-12-10T12:13:44.072469Z",
      "blockNumber": null,
      "transactionHash": null,
      "safeTxHash": "0xca7a464a3479af396c2975b4b3f5f7b90fc56747404ebaad5ec838c2954d2f9c",
      "executor": null,
      "isExecuted": false,
      "isSuccessful": null,
      "ethGasPrice": null,
      "gasUsed": null,
      "fee": null,
      "origin": null,
      "dataDecoded": {
        "method": "transfer",
        "parameters": [
          {
            "name": "to",
            "type": "address",
            "value": "0xF353eBBa77e5E71c210599236686D51cA1F88b84"
          },
          {
            "name": "value",
            "type": "uint256",
            "value": "20"
          }
        ]
      },
      "confirmationsRequired": null,
      "confirmations": [
        {
          "owner": "0xF2CeA96575d6b10f51d9aF3b10e3e4E5738aa6bd",
          "submissionDate": "2020-12-10T12:13:44.110973Z",
          "transactionHash": null,
          "confirmationType": "CONFIRMATION",
          "signature": "0xe5762ad08890c0ec55a2f0ce502afd35a7dcac2d71d6769f8b7eab53131b152612c5c50966625873ecdd43578afb4ebedfceaaace2a57bb7ef10e0e81213d7931c",
          "signatureType": "EOA"
        }
      ],
      "signatures": null
    }
  ],
  "countUniqueNonce": 395
}