{
  "created": "2020-12-01T18:04:14Z",
  "executionDate": "2020-12-01T18:04:14Z",
  "blockNumber": 7645325,
  "isSuccessful": true,
  "transactionHash": "0xcd10b23687bf336d0f4c0a3383590d3d1722aaa99a41fd0d289a5f69a8266c8f",
  "safe": "0x1230B3d59858296A31053C1b8562Ecf89A2f888b",
  "module": "0xCFbFaC74C26F8647cBDb8c5caf80BB5b32E43134",
  "to": "0x1230B3d59858296A31053C1b8562Ecf89A2f888b",
  "value": "0",
  "data": "0x0d582f13000000000000000000000000a3daa0d9ae02daa17a664c232ada1b739ef5ae8d0000000000000000000000000000000000000000000000000000000000000002",
  "operation": 0,
  "dataDecoded": {
    "method": "newAndDifferentAddOwnerWithThreshold",
    "parameters": [
      {
        "name": "owner",
        "type": "address",
        "value": "0xA3DAa0d9Ae02dAA17a664c232aDa1B739eF5ae8D"
      },
      {
        "name": "_threshold",
        "type": "uint256",
        "value": "2"
      }
    ]
  },
  "transfers": [],
  "txType": "MODULE_TRANSACTION"
}
