{
  "safe": "0x1230B3d59858296A31053C1b8562Ecf89A2f888b",
  "to": "0x1230B3d59858296A31053C1b8562Ecf89A2f888b",
  "value": "0",
  "data": "0x0d582f13000000000000000000000000a3daa0d9ae02daa17a664c232ada1b739ef5ae8d0000000000000000000000000000000000000000000000000000000000000002",
  "operation": 0,
  "gasToken": "0x0000000000000000000000000000000000000000",
  "safeTxGas": 59786,
  "baseGas": 0,
  "gasPrice": "0",
  "refundReceiver": "0x0000000000000000000000000000000000000000",
  "nonce": 135,
  "executionDate": "2020-07-22T14:57:11Z",
  "submissionDate": "2020-07-22T14:57:11Z",
  "modified": "2020-07-22T14:57:11Z",
  "blockNumber": 6884952,
  "transactionHash": "0x7a6373c2d18e6e9dda16f4bd7f16a24600314487f3e30fb63a227b368d18121a",
  "safeTxHash": "0x57d94fe21bbee8f6646c420ee23126cd1ba1b9a53a6c9b10099a043da8f32eea",
  "executor": "0x65F8236309e5A99Ff0d129d04E486EBCE20DC7B0",
  "isExecuted": true,
  "isSuccessful": true,
  "ethGasPrice": "1000000000",
  "gasUsed": 86109,
  "fee": "86109000000000",
  "origin": null,
  "dataDecoded": {
    "method": "addOwnerWithThreshold",
    "parameters": [
      {
        "name": "owner",
        "type": "address",
        "value": "0xA3DAa0d9Ae02dAA17a664c232aDa1B739eF5ae8D"
      },
      {
        "name": "_threshold",
        "type": "uint256",
        "value": "2"
      }
    ]
  },
  "confirmationsRequired": 2,
  "confirmations": [
    {
      "owner": "0x65F8236309e5A99Ff0d129d04E486EBCE20DC7B0",
      "submissionDate": "2020-07-22T14:57:36.786743Z",
      "transactionHash": null,
      "confirmationType": "CONFIRMATION",
      "signature": "0x00000000000000000000000065f8236309e5a99ff0d129d04e486ebce20dc7b0000000000000000000000000000000000000000000000000000000000000000001",
      "signatureType": "APPROVED_HASH"
    },
    {
      "owner": "0xF2CeA96575d6b10f51d9aF3b10e3e4E5738aa6bd",
      "submissionDate": "2020-07-22T14:57:36.802810Z",
      "transactionHash": null,
      "confirmationType": "CONFIRMATION",
      "signature": "0x2e8318bcd59462b715384e39fd848ccd0f54610cacdbb6adb46ec5c374d1bd2f1f8b3e1873f292bcafffd62c59281a00e2890478f1dfe72866d6edf3fd3522711b",
      "signatureType": "EOA"
    }
  ],
  "signatures": "0x00000000000000000000000065f8236309e5a99ff0d129d04e486ebce20dc7b00000000000000000000000000000000000000000000000000000000000000000012e8318bcd59462b715384e39fd848ccd0f54610cacdbb6adb46ec5c374d1bd2f1f8b3e1873f292bcafffd62c59281a00e2890478f1dfe72866d6edf3fd3522711b",
  "transfers": [],
  "txType": "MULTISIG_TRANSACTION"
}